{
  "_format": "hh-sol-artifact-1",
  "contractName": "VotingSystem",
  "sourceName": "contracts/Lock.sol",
  "abi": [
    {
      "inputs": [
        {
          "internalType": "uint256",
          "name": "_tokenPrice",
          "type": "uint256"
        },
        {
          "internalType": "uint256",
          "name": "_minimumVotingAge",
          "type": "uint256"
        }
      ],
      "stateMutability": "nonpayable",
      "type": "constructor"
    },
    {
      "anonymous": false,
      "inputs": [
        {
          "indexed": false,
          "internalType": "address",
          "name": "candidateAddress",
          "type": "address"
        },
        {
          "indexed": false,
          "internalType": "string",
          "name": "name",
          "type": "string"
        }
      ],
      "name": "CandidateAdded",
      "type": "event"
    },
    {
      "anonymous": false,
      "inputs": [
        {
          "indexed": false,
          "internalType": "address",
          "name": "voter",
          "type": "address"
        },
        {
          "indexed": false,
          "internalType": "address",
          "name": "candidate",
          "type": "address"
        }
      ],
      "name": "Voted",
      "type": "event"
    },
    {
      "inputs": [],
      "name": "Candidates",
      "outputs": [
        {
          "components": [
            {
              "internalType": "address",
              "name": "candidateAddress",
              "type": "address"
            },
            {
              "internalType": "string",
              "name": "name",
              "type": "string"
            },
            {
              "internalType": "string",
              "name": "description",
              "type": "string"
            },
            {
              "internalType": "uint256",
              "name": "voteCount",
              "type": "uint256"
            }
          ],
          "internalType": "struct VotingSystem.Candidate[]",
          "name": "",
          "type": "tuple[]"
        }
      ],
      "stateMutability": "view",
      "type": "function"
    },
    {
      "inputs": [
        {
          "internalType": "string",
          "name": "_name",
          "type": "string"
        },
        {
          "internalType": "string",
          "name": "_description",
          "type": "string"
        }
      ],
      "name": "addCandidate",
      "outputs": [],
      "stateMutability": "nonpayable",
      "type": "function"
    },
    {
      "inputs": [],
      "name": "buyTokens",
      "outputs": [],
      "stateMutability": "payable",
      "type": "function"
    },
    {
      "inputs": [
        {
          "internalType": "uint256",
          "name": "",
          "type": "uint256"
        }
      ],
      "name": "candidates",
      "outputs": [
        {
          "internalType": "address",
          "name": "candidateAddress",
          "type": "address"
        },
        {
          "internalType": "string",
          "name": "name",
          "type": "string"
        },
        {
          "internalType": "string",
          "name": "description",
          "type": "string"
        },
        {
          "internalType": "uint256",
          "name": "voteCount",
          "type": "uint256"
        }
      ],
      "stateMutability": "view",
      "type": "function"
    },
    {
      "inputs": [
        {
          "internalType": "address",
          "name": "",
          "type": "address"
        }
      ],
      "name": "hasBoughtToken",
      "outputs": [
        {
          "internalType": "bool",
          "name": "",
          "type": "bool"
        }
      ],
      "stateMutability": "view",
      "type": "function"
    },
    {
      "inputs": [
        {
          "internalType": "address",
          "name": "",
          "type": "address"
        }
      ],
      "name": "isCandidate",
      "outputs": [
        {
          "internalType": "bool",
          "name": "",
          "type": "bool"
        }
      ],
      "stateMutability": "view",
      "type": "function"
    },
    {
      "inputs": [],
      "name": "minimumVotingAge",
      "outputs": [
        {
          "internalType": "uint256",
          "name": "",
          "type": "uint256"
        }
      ],
      "stateMutability": "view",
      "type": "function"
    },
    {
      "inputs": [],
      "name": "owner",
      "outputs": [
        {
          "internalType": "address",
          "name": "",
          "type": "address"
        }
      ],
      "stateMutability": "view",
      "type": "function"
    },
    {
      "inputs": [
        {
          "internalType": "uint256",
          "name": "_age",
          "type": "uint256"
        }
      ],
      "name": "setVoterAge",
      "outputs": [],
      "stateMutability": "nonpayable",
      "type": "function"
    },
    {
      "inputs": [],
      "name": "tokenPrice",
      "outputs": [
        {
          "internalType": "uint256",
          "name": "",
          "type": "uint256"
        }
      ],
      "stateMutability": "view",
      "type": "function"
    },
    {
      "inputs": [],
      "name": "tokens",
      "outputs": [
        {
          "internalType": "uint256",
          "name": "",
          "type": "uint256"
        }
      ],
      "stateMutability": "view",
      "type": "function"
    },
    {
      "inputs": [
        {
          "internalType": "address",
          "name": "_candidateAddress",
          "type": "address"
        }
      ],
      "name": "vote",
      "outputs": [],
      "stateMutability": "nonpayable",
      "type": "function"
    },
    {
      "inputs": [
        {
          "internalType": "address",
          "name": "",
          "type": "address"
        }
      ],
      "name": "voters",
      "outputs": [
        {
          "internalType": "bool",
          "name": "hasVoted",
          "type": "bool"
        },
        {
          "internalType": "uint256",
          "name": "age",
          "type": "uint256"
        },
        {
          "internalType": "uint256",
          "name": "tokens",
          "type": "uint256"
        }
      ],
      "stateMutability": "view",
      "type": "function"
    }
  ],
  "bytecode": "0x60806040526127106003553480156200001757600080fd5b50604051620028cd380380620028cd83398181016040528101906200003d9190620000d3565b336000806101000a81548173ffffffffffffffffffffffffffffffffffffffff021916908373ffffffffffffffffffffffffffffffffffffffff160217905550816001819055508060028190555050506200011a565b600080fd5b6000819050919050565b620000ad8162000098565b8114620000b957600080fd5b50565b600081519050620000cd81620000a2565b92915050565b60008060408385031215620000ed57620000ec62000093565b5b6000620000fd85828601620000bc565b92505060206200011085828601620000bc565b9150509250929050565b6127a3806200012a6000396000f3fe6080604052600436106100c25760003560e01c80638da5cb5b1161007f578063cd76410c11610059578063cd76410c14610281578063d0febe4c146102ac578063d51b9e93146102b6578063e8b411f6146102f3576100c2565b80638da5cb5b146101ec5780639d63848a14610217578063a3ec138d14610242576100c2565b806326541b56146100c75780633477ee2e146100f05780636dd7d8ea1461013057806371398be3146101595780637ff9b59614610196578063877ef875146101c1575b600080fd5b3480156100d357600080fd5b506100ee60048036038101906100e99190611909565b61031c565b005b3480156100fc57600080fd5b50610117600480360381019061011291906119b7565b6106c6565b6040516101279493929190611ab3565b60405180910390f35b34801561013c57600080fd5b5061015760048036038101906101529190611b32565b610836565b005b34801561016557600080fd5b50610180600480360381019061017b9190611b32565b610d84565b60405161018d9190611b7a565b60405180910390f35b3480156101a257600080fd5b506101ab610da4565b6040516101b89190611b95565b60405180910390f35b3480156101cd57600080fd5b506101d6610daa565b6040516101e39190611b95565b60405180910390f35b3480156101f857600080fd5b50610201610db0565b60405161020e9190611bb0565b60405180910390f35b34801561022357600080fd5b5061022c610dd4565b6040516102399190611b95565b60405180910390f35b34801561024e57600080fd5b5061026960048036038101906102649190611b32565b610dda565b60405161027893929190611bcb565b60405180910390f35b34801561028d57600080fd5b50610296610e11565b6040516102a39190611d96565b60405180910390f35b6102b4610ff4565b005b3480156102c257600080fd5b506102dd60048036038101906102d89190611b32565b611412565b6040516102ea9190611b7a565b60405180910390f35b3480156102ff57600080fd5b5061031a600480360381019061031591906119b7565b611432565b005b60008054906101000a900473ffffffffffffffffffffffffffffffffffffffff1673ffffffffffffffffffffffffffffffffffffffff163373ffffffffffffffffffffffffffffffffffffffff16036103aa576040517f08c379a00000000000000000000000000000000000000000000000000000000081526004016103a190611e04565b60405180910390fd5b600560003373ffffffffffffffffffffffffffffffffffffffff1673ffffffffffffffffffffffffffffffffffffffff16815260200190815260200160002060009054906101000a900460ff1615610437576040517f08c379a000000000000000000000000000000000000000000000000000000000815260040161042e90611e70565b60405180910390fd5b600760003373ffffffffffffffffffffffffffffffffffffffff1673ffffffffffffffffffffffffffffffffffffffff16815260200190815260200160002060009054906101000a900460ff16156104c4576040517f08c379a00000000000000000000000000000000000000000000000000000000081526004016104bb90611f02565b60405180910390fd5b600460405180608001604052803373ffffffffffffffffffffffffffffffffffffffff1681526020018481526020018381526020016000815250908060018154018082558091505060019003906000526020600020906004020160009091909190915060008201518160000160006101000a81548173ffffffffffffffffffffffffffffffffffffffff021916908373ffffffffffffffffffffffffffffffffffffffff1602179055506020820151816001019081610583919061212e565b506040820151816002019081610599919061212e565b506060820151816003015550506001600560003373ffffffffffffffffffffffffffffffffffffffff1673ffffffffffffffffffffffffffffffffffffffff16815260200190815260200160002060006101000a81548160ff0219169083151502179055506106896040518060400160405280601881526020017f2a2a4164642063616e6469646174652069733a2025732a2a0000000000000000815250600560003373ffffffffffffffffffffffffffffffffffffffff1673ffffffffffffffffffffffffffffffffffffffff16815260200190815260200160002060009054906101000a900460ff1661158b565b7f8b4af2e48fffe55a80e231b97639bf2b38e5d50f22c4263379c8d28fe824a89c33836040516106ba929190612200565b60405180910390a15050565b600481815481106106d657600080fd5b90600052602060002090600402016000915090508060000160009054906101000a900473ffffffffffffffffffffffffffffffffffffffff169080600101805461071f90611f51565b80601f016020809104026020016040519081016040528092919081815260200182805461074b90611f51565b80156107985780601f1061076d57610100808354040283529160200191610798565b820191906000526020600020905b81548152906001019060200180831161077b57829003601f168201915b5050505050908060020180546107ad90611f51565b80601f01602080910402602001604051908101604052809291908181526020018280546107d990611f51565b80156108265780601f106107fb57610100808354040283529160200191610826565b820191906000526020600020905b81548152906001019060200180831161080957829003601f168201915b5050505050908060030154905084565b60008054906101000a900473ffffffffffffffffffffffffffffffffffffffff1673ffffffffffffffffffffffffffffffffffffffff163373ffffffffffffffffffffffffffffffffffffffff16036108c4576040517f08c379a00000000000000000000000000000000000000000000000000000000081526004016108bb90611e04565b60405180910390fd5b6109036040518060400160405280602081526020017f2a2a5468652063616e64696461746520616464726573732069733a2025732a2a81525082611627565b600560008273ffffffffffffffffffffffffffffffffffffffff1673ffffffffffffffffffffffffffffffffffffffff16815260200190815260200160002060009054906101000a900460ff1661098f576040517f08c379a00000000000000000000000000000000000000000000000000000000081526004016109869061227c565b60405180910390fd5b600254600660003373ffffffffffffffffffffffffffffffffffffffff1673ffffffffffffffffffffffffffffffffffffffff168152602001908152602001600020600101541015610a16576040517f08c379a0000000000000000000000000000000000000000000000000000000008152600401610a0d9061230e565b60405180910390fd5b600660003373ffffffffffffffffffffffffffffffffffffffff1673ffffffffffffffffffffffffffffffffffffffff16815260200190815260200160002060000160009054906101000a900460ff1615610aa6576040517f08c379a0000000000000000000000000000000000000000000000000000000008152600401610a9d9061237a565b60405180910390fd5b6000600660003373ffffffffffffffffffffffffffffffffffffffff1673ffffffffffffffffffffffffffffffffffffffff1681526020019081526020016000206002015411610b2b576040517f08c379a0000000000000000000000000000000000000000000000000000000008152600401610b22906123e6565b60405180910390fd5b60005b600480549050811015610d80578173ffffffffffffffffffffffffffffffffffffffff1660048281548110610b6657610b65612406565b5b906000526020600020906004020160000160009054906101000a900473ffffffffffffffffffffffffffffffffffffffff1673ffffffffffffffffffffffffffffffffffffffff1603610d6d5760048181548110610bc757610bc6612406565b5b90600052602060002090600402016003016000815480929190610be990612464565b91905055506001600660003373ffffffffffffffffffffffffffffffffffffffff1673ffffffffffffffffffffffffffffffffffffffff16815260200190815260200160002060000160006101000a81548160ff021916908315150217905550600660003373ffffffffffffffffffffffffffffffffffffffff1673ffffffffffffffffffffffffffffffffffffffff1681526020019081526020016000206002016000815480929190610c9c906124ac565b9190505550610d2f6040518060400160405280601281526020017f2a2a566f74657220766f74653a2025732a2a0000000000000000000000000000815250600660003373ffffffffffffffffffffffffffffffffffffffff1673ffffffffffffffffffffffffffffffffffffffff16815260200190815260200160002060000160009054906101000a900460ff1661158b565b7fce0c7a2a940807f7dc2ce7a615c2532e915e6c0ac9a08bc4ed9d515a710a53e23383604051610d609291906124d5565b60405180910390a1610d80565b8080610d7890612464565b915050610b2e565b5050565b60076020528060005260406000206000915054906101000a900460ff1681565b60015481565b60025481565b60008054906101000a900473ffffffffffffffffffffffffffffffffffffffff1681565b60035481565b60066020528060005260406000206000915090508060000160009054906101000a900460ff16908060010154908060020154905083565b60606004805480602002602001604051908101604052809291908181526020016000905b82821015610feb57838290600052602060002090600402016040518060800160405290816000820160009054906101000a900473ffffffffffffffffffffffffffffffffffffffff1673ffffffffffffffffffffffffffffffffffffffff1673ffffffffffffffffffffffffffffffffffffffff168152602001600182018054610ebe90611f51565b80601f0160208091040260200160405190810160405280929190818152602001828054610eea90611f51565b8015610f375780601f10610f0c57610100808354040283529160200191610f37565b820191906000526020600020905b815481529060010190602001808311610f1a57829003601f168201915b50505050508152602001600282018054610f5090611f51565b80601f0160208091040260200160405190810160405280929190818152602001828054610f7c90611f51565b8015610fc95780601f10610f9e57610100808354040283529160200191610fc9565b820191906000526020600020905b815481529060010190602001808311610fac57829003601f168201915b5050505050815260200160038201548152505081526020019060010190610e35565b50505050905090565b60008054906101000a900473ffffffffffffffffffffffffffffffffffffffff1673ffffffffffffffffffffffffffffffffffffffff163373ffffffffffffffffffffffffffffffffffffffff1603611082576040517f08c379a000000000000000000000000000000000000000000000000000000000815260040161107990611e04565b60405180910390fd5b600560003373ffffffffffffffffffffffffffffffffffffffff1673ffffffffffffffffffffffffffffffffffffffff16815260200190815260200160002060009054906101000a900460ff161561110f576040517f08c379a00000000000000000000000000000000000000000000000000000000081526004016111069061254a565b60405180910390fd5b6111506040518060400160405280601681526020017f2a2a54686520746f6b656e73206172653a2025732a2a000000000000000000008152506003546116c3565b6001543414611194576040517f08c379a000000000000000000000000000000000000000000000000000000000815260040161118b906125b6565b60405180910390fd5b600760003373ffffffffffffffffffffffffffffffffffffffff1673ffffffffffffffffffffffffffffffffffffffff16815260200190815260200160002060009054906101000a900460ff1615611221576040517f08c379a000000000000000000000000000000000000000000000000000000000815260040161121890612622565b60405180910390fd5b600060035411611266576040517f08c379a000000000000000000000000000000000000000000000000000000000815260040161125d9061268e565b60405180910390fd5b60008054906101000a900473ffffffffffffffffffffffffffffffffffffffff1673ffffffffffffffffffffffffffffffffffffffff166108fc349081150290604051600060405180830381858888f193505050501580156112cc573d6000803e3d6000fd5b506001600660003373ffffffffffffffffffffffffffffffffffffffff1673ffffffffffffffffffffffffffffffffffffffff168152602001908152602001600020600201819055506001600760003373ffffffffffffffffffffffffffffffffffffffff1673ffffffffffffffffffffffffffffffffffffffff16815260200190815260200160002060006101000a81548160ff02191690831515021790555060036000815480929190611380906124ac565b91905055506114106040518060400160405280601c81526020017f2a2a566f74657220627579207468697320746f6b656e3a2025732a2a00000000815250600760003373ffffffffffffffffffffffffffffffffffffffff1673ffffffffffffffffffffffffffffffffffffffff16815260200190815260200160002060009054906101000a900460ff1661158b565b565b60056020528060005260406000206000915054906101000a900460ff1681565b60008054906101000a900473ffffffffffffffffffffffffffffffffffffffff1673ffffffffffffffffffffffffffffffffffffffff163373ffffffffffffffffffffffffffffffffffffffff16036114c0576040517f08c379a00000000000000000000000000000000000000000000000000000000081526004016114b790611e04565b60405180910390fd5b80600660003373ffffffffffffffffffffffffffffffffffffffff1673ffffffffffffffffffffffffffffffffffffffff168152602001908152602001600020600101819055506115886040518060400160405280601881526020017f2a2a54686520766f746572206167652069733a2025732a2a0000000000000000815250600660003373ffffffffffffffffffffffffffffffffffffffff1673ffffffffffffffffffffffffffffffffffffffff168152602001908152602001600020600101546116c3565b50565b61162382826040516024016115a19291906126ae565b6040516020818303038152906040527fc3b55635000000000000000000000000000000000000000000000000000000007bffffffffffffffffffffffffffffffffffffffffffffffffffffffff19166020820180517bffffffffffffffffffffffffffffffffffffffffffffffffffffffff838183161783525050505061175f565b5050565b6116bf828260405160240161163d9291906126de565b6040516020818303038152906040527f319af333000000000000000000000000000000000000000000000000000000007bffffffffffffffffffffffffffffffffffffffffffffffffffffffff19166020820180517bffffffffffffffffffffffffffffffffffffffffffffffffffffffff838183161783525050505061175f565b5050565b61175b82826040516024016116d992919061270e565b6040516020818303038152906040527fb60e72cc000000000000000000000000000000000000000000000000000000007bffffffffffffffffffffffffffffffffffffffffffffffffffffffff19166020820180517bffffffffffffffffffffffffffffffffffffffffffffffffffffffff838183161783525050505061175f565b5050565b6117768161176e61177961179a565b63ffffffff16565b50565b60006a636f6e736f6c652e6c6f679050600080835160208501845afa505050565b6117a5819050919050565b6117ad61273e565b565b6000604051905090565b600080fd5b600080fd5b600080fd5b600080fd5b6000601f19601f8301169050919050565b7f4e487b7100000000000000000000000000000000000000000000000000000000600052604160045260246000fd5b611816826117cd565b810181811067ffffffffffffffff82111715611835576118346117de565b5b80604052505050565b60006118486117af565b9050611854828261180d565b919050565b600067ffffffffffffffff821115611874576118736117de565b5b61187d826117cd565b9050602081019050919050565b82818337600083830152505050565b60006118ac6118a784611859565b61183e565b9050828152602081018484840111156118c8576118c76117c8565b5b6118d384828561188a565b509392505050565b600082601f8301126118f0576118ef6117c3565b5b8135611900848260208601611899565b91505092915050565b600080604083850312156119205761191f6117b9565b5b600083013567ffffffffffffffff81111561193e5761193d6117be565b5b61194a858286016118db565b925050602083013567ffffffffffffffff81111561196b5761196a6117be565b5b611977858286016118db565b9150509250929050565b6000819050919050565b61199481611981565b811461199f57600080fd5b50565b6000813590506119b18161198b565b92915050565b6000602082840312156119cd576119cc6117b9565b5b60006119db848285016119a2565b91505092915050565b600073ffffffffffffffffffffffffffffffffffffffff82169050919050565b6000611a0f826119e4565b9050919050565b611a1f81611a04565b82525050565b600081519050919050565b600082825260208201905092915050565b60005b83811015611a5f578082015181840152602081019050611a44565b60008484015250505050565b6000611a7682611a25565b611a808185611a30565b9350611a90818560208601611a41565b611a99816117cd565b840191505092915050565b611aad81611981565b82525050565b6000608082019050611ac86000830187611a16565b8181036020830152611ada8186611a6b565b90508181036040830152611aee8185611a6b565b9050611afd6060830184611aa4565b95945050505050565b611b0f81611a04565b8114611b1a57600080fd5b50565b600081359050611b2c81611b06565b92915050565b600060208284031215611b4857611b476117b9565b5b6000611b5684828501611b1d565b91505092915050565b60008115159050919050565b611b7481611b5f565b82525050565b6000602082019050611b8f6000830184611b6b565b92915050565b6000602082019050611baa6000830184611aa4565b92915050565b6000602082019050611bc56000830184611a16565b92915050565b6000606082019050611be06000830186611b6b565b611bed6020830185611aa4565b611bfa6040830184611aa4565b949350505050565b600081519050919050565b600082825260208201905092915050565b6000819050602082019050919050565b611c3781611a04565b82525050565b600082825260208201905092915050565b6000611c5982611a25565b611c638185611c3d565b9350611c73818560208601611a41565b611c7c816117cd565b840191505092915050565b611c9081611981565b82525050565b6000608083016000830151611cae6000860182611c2e565b5060208301518482036020860152611cc68282611c4e565b91505060408301518482036040860152611ce08282611c4e565b9150506060830151611cf56060860182611c87565b508091505092915050565b6000611d0c8383611c96565b905092915050565b6000602082019050919050565b6000611d2c82611c02565b611d368185611c0d565b935083602082028501611d4885611c1e565b8060005b85811015611d845784840389528151611d658582611d00565b9450611d7083611d14565b925060208a01995050600181019050611d4c565b50829750879550505050505092915050565b60006020820190508181036000830152611db08184611d21565b905092915050565b7f4f776e65722063616e6e6f7420706572666f726d207468697320616374696f6e600082015250565b6000611dee602083611a30565b9150611df982611db8565b602082019050919050565b60006020820190508181036000830152611e1d81611de1565b9050919050565b7f596f752061726520616c726561647920612063616e6469646174652e00000000600082015250565b6000611e5a601c83611a30565b9150611e6582611e24565b602082019050919050565b60006020820190508181036000830152611e8981611e4d565b9050919050565b7f596f752063616e6e6f74206265636f6d6520612063616e64696461746520616660008201527f74657220627579696e6720746f6b656e732e0000000000000000000000000000602082015250565b6000611eec603283611a30565b9150611ef782611e90565b604082019050919050565b60006020820190508181036000830152611f1b81611edf565b9050919050565b7f4e487b7100000000000000000000000000000000000000000000000000000000600052602260045260246000fd5b60006002820490506001821680611f6957607f821691505b602082108103611f7c57611f7b611f22565b5b50919050565b60008190508160005260206000209050919050565b60006020601f8301049050919050565b600082821b905092915050565b600060088302611fe47fffffffffffffffffffffffffffffffffffffffffffffffffffffffffffffffff82611fa7565b611fee8683611fa7565b95508019841693508086168417925050509392505050565b6000819050919050565b600061202b61202661202184611981565b612006565b611981565b9050919050565b6000819050919050565b61204583612010565b61205961205182612032565b848454611fb4565b825550505050565b600090565b61206e612061565b61207981848461203c565b505050565b5b8181101561209d57612092600082612066565b60018101905061207f565b5050565b601f8211156120e2576120b381611f82565b6120bc84611f97565b810160208510156120cb578190505b6120df6120d785611f97565b83018261207e565b50505b505050565b600082821c905092915050565b6000612105600019846008026120e7565b1980831691505092915050565b600061211e83836120f4565b9150826002028217905092915050565b61213782611a25565b67ffffffffffffffff8111156121505761214f6117de565b5b61215a8254611f51565b6121658282856120a1565b600060209050601f8311600181146121985760008415612186578287015190505b6121908582612112565b8655506121f8565b601f1984166121a686611f82565b60005b828110156121ce578489015182556001820191506020850194506020810190506121a9565b868310156121eb57848901516121e7601f8916826120f4565b8355505b6001600288020188555050505b505050505050565b60006040820190506122156000830185611a16565b81810360208301526122278184611a6b565b90509392505050565b7f496e76616c69642063616e64696461746520616464726573732e000000000000600082015250565b6000612266601a83611a30565b915061227182612230565b602082019050919050565b6000602082019050818103600083015261229581612259565b9050919050565b7f596f75206d7573742062652061626f766520746865206d696e696d756d20766f60008201527f74696e67206167652e0000000000000000000000000000000000000000000000602082015250565b60006122f8602983611a30565b91506123038261229c565b604082019050919050565b60006020820190508181036000830152612327816122eb565b9050919050565b7f596f75206861766520616c726561647920766f7465642e000000000000000000600082015250565b6000612364601783611a30565b915061236f8261232e565b602082019050919050565b6000602082019050818103600083015261239381612357565b9050919050565b7f496e73756666696369656e7420746f6b656e732e000000000000000000000000600082015250565b60006123d0601483611a30565b91506123db8261239a565b602082019050919050565b600060208201905081810360008301526123ff816123c3565b9050919050565b7f4e487b7100000000000000000000000000000000000000000000000000000000600052603260045260246000fd5b7f4e487b7100000000000000000000000000000000000000000000000000000000600052601160045260246000fd5b600061246f82611981565b91507fffffffffffffffffffffffffffffffffffffffffffffffffffffffffffffffff82036124a1576124a0612435565b5b600182019050919050565b60006124b782611981565b9150600082036124ca576124c9612435565b5b600182039050919050565b60006040820190506124ea6000830185611a16565b6124f76020830184611a16565b9392505050565b7f43616e6469646174652063616e6e6f742062757920746f6b656e000000000000600082015250565b6000612534601a83611a30565b915061253f826124fe565b602082019050919050565b6000602082019050818103600083015261256381612527565b9050919050565b7f496e76616c696420746f6b656e20707572636861736520616d6f756e742e0000600082015250565b60006125a0601e83611a30565b91506125ab8261256a565b602082019050919050565b600060208201905081810360008301526125cf81612593565b9050919050565b7f596f752063616e206f6e6c7920627579206f6e6520746f6b656e2e0000000000600082015250565b600061260c601b83611a30565b9150612617826125d6565b602082019050919050565b6000602082019050818103600083015261263b816125ff565b9050919050565b7f546f6b656e7320617265206e6f74206d6f7265206c6566740000000000000000600082015250565b6000612678601883611a30565b915061268382612642565b602082019050919050565b600060208201905081810360008301526126a78161266b565b9050919050565b600060408201905081810360008301526126c88185611a6b565b90506126d76020830184611b6b565b9392505050565b600060408201905081810360008301526126f88185611a6b565b90506127076020830184611a16565b9392505050565b600060408201905081810360008301526127288185611a6b565b90506127376020830184611aa4565b9392505050565b7f4e487b7100000000000000000000000000000000000000000000000000000000600052605160045260246000fdfea2646970667358221220c1cd46d744e577d7e70148506abb28b88a4642f906558085e1b65b5b000525c164736f6c63430008130033",
  "linkReferences": {},
  "deployedLinkReferences": {}
}